{
  "_format": "hh-sol-artifact-1",
  "contractName": "PlayshubCheckIn",
  "sourceName": "contracts/PlayshubCheckIn.sol",
  "abi": [
    {
      "inputs": [
        {
          "internalType": "address",
          "name": "owner_",
          "type": "address"
        },
        {
          "internalType": "address[]",
          "name": "_initialTokens",
          "type": "address[]"
        },
        {
          "internalType": "uint256[]",
          "name": "_initialValues",
          "type": "uint256[]"
        }
      ],
      "stateMutability": "nonpayable",
      "type": "constructor"
    },
    {
      "inputs": [],
      "name": "EnforcedPause",
      "type": "error"
    },
    {
      "inputs": [],
      "name": "ExpectedPause",
      "type": "error"
    },
    {
      "inputs": [],
      "name": "FailedCall",
      "type": "error"
    },
    {
      "inputs": [
        {
          "internalType": "uint256",
          "name": "balance",
          "type": "uint256"
        },
        {
          "internalType": "uint256",
          "name": "needed",
          "type": "uint256"
        }
      ],
      "name": "InsufficientBalance",
      "type": "error"
    },
    {
      "inputs": [],
      "name": "InsufficientBalance",
      "type": "error"
    },
    {
      "inputs": [],
      "name": "MismatchedArrayLengths",
      "type": "error"
    },
    {
      "inputs": [
        {
          "internalType": "address",
          "name": "owner",
          "type": "address"
        }
      ],
      "name": "OwnableInvalidOwner",
      "type": "error"
    },
    {
      "inputs": [
        {
          "internalType": "address",
          "name": "account",
          "type": "address"
        }
      ],
      "name": "OwnableUnauthorizedAccount",
      "type": "error"
    },
    {
      "inputs": [],
      "name": "ReentrancyGuardReentrantCall",
      "type": "error"
    },
    {
      "inputs": [
        {
          "internalType": "address",
          "name": "token",
          "type": "address"
        }
      ],
      "name": "SafeERC20FailedOperation",
      "type": "error"
    },
    {
      "inputs": [],
      "name": "TokenIsSupported",
      "type": "error"
    },
    {
      "inputs": [],
      "name": "TokenIsUnsupported",
      "type": "error"
    },
    {
      "anonymous": false,
      "inputs": [
        {
          "indexed": true,
          "internalType": "address",
          "name": "sender",
          "type": "address"
        },
        {
          "indexed": true,
          "internalType": "address",
          "name": "token",
          "type": "address"
        },
        {
          "indexed": false,
          "internalType": "uint256",
          "name": "timestamp",
          "type": "uint256"
        },
        {
          "indexed": false,
          "internalType": "uint256",
          "name": "count",
          "type": "uint256"
        },
        {
          "indexed": false,
          "internalType": "string",
          "name": "userId",
          "type": "string"
        }
      ],
      "name": "CheckedIn",
      "type": "event"
    },
    {
      "anonymous": false,
      "inputs": [
        {
          "indexed": true,
          "internalType": "address",
          "name": "previousOwner",
          "type": "address"
        },
        {
          "indexed": true,
          "internalType": "address",
          "name": "newOwner",
          "type": "address"
        }
      ],
      "name": "OwnershipTransferred",
      "type": "event"
    },
    {
      "anonymous": false,
      "inputs": [
        {
          "indexed": false,
          "internalType": "address",
          "name": "account",
          "type": "address"
        }
      ],
      "name": "Paused",
      "type": "event"
    },
    {
      "anonymous": false,
      "inputs": [
        {
          "indexed": true,
          "internalType": "address",
          "name": "token",
          "type": "address"
        },
        {
          "indexed": false,
          "internalType": "uint256",
          "name": "value",
          "type": "uint256"
        }
      ],
      "name": "TokenSupportAdded",
      "type": "event"
    },
    {
      "anonymous": false,
      "inputs": [
        {
          "indexed": true,
          "internalType": "address",
          "name": "token",
          "type": "address"
        }
      ],
      "name": "TokenSupportRemoved",
      "type": "event"
    },
    {
      "anonymous": false,
      "inputs": [
        {
          "indexed": false,
          "internalType": "address",
          "name": "account",
          "type": "address"
        }
      ],
      "name": "Unpaused",
      "type": "event"
    },
    {
      "anonymous": false,
      "inputs": [
        {
          "indexed": true,
          "internalType": "address",
          "name": "token",
          "type": "address"
        },
        {
          "indexed": true,
          "internalType": "address",
          "name": "to",
          "type": "address"
        },
        {
          "indexed": false,
          "internalType": "uint256",
          "name": "amount",
          "type": "uint256"
        }
      ],
      "name": "Withdrawn",
      "type": "event"
    },
    {
      "inputs": [],
      "name": "NATIVE_TOKEN",
      "outputs": [
        {
          "internalType": "address",
          "name": "",
          "type": "address"
        }
      ],
      "stateMutability": "view",
      "type": "function"
    },
    {
      "inputs": [
        {
          "internalType": "address",
          "name": "token",
          "type": "address"
        },
        {
          "internalType": "uint256",
          "name": "value",
          "type": "uint256"
        }
      ],
      "name": "addSupportedToken",
      "outputs": [],
      "stateMutability": "nonpayable",
      "type": "function"
    },
    {
      "inputs": [
        {
          "internalType": "address",
          "name": "token",
          "type": "address"
        },
        {
          "internalType": "string",
          "name": "userId",
          "type": "string"
        }
      ],
      "name": "checkIn",
      "outputs": [],
      "stateMutability": "nonpayable",
      "type": "function"
    },
    {
      "inputs": [
        {
          "internalType": "string",
          "name": "userId",
          "type": "string"
        }
      ],
      "name": "checkIn",
      "outputs": [],
      "stateMutability": "payable",
      "type": "function"
    },
    {
      "inputs": [
        {
          "internalType": "string",
          "name": "userId",
          "type": "string"
        }
      ],
      "name": "checkInRecordOf",
      "outputs": [
        {
          "components": [
            {
              "internalType": "uint256",
              "name": "latestTimestamp",
              "type": "uint256"
            },
            {
              "internalType": "uint256",
              "name": "count",
              "type": "uint256"
            }
          ],
          "internalType": "struct PlayshubCheckIn.CheckInRecord",
          "name": "",
          "type": "tuple"
        }
      ],
      "stateMutability": "view",
      "type": "function"
    },
    {
      "inputs": [
        {
          "internalType": "address",
          "name": "token",
          "type": "address"
        }
      ],
      "name": "checkInTokenOf",
      "outputs": [
        {
          "components": [
            {
              "internalType": "bool",
              "name": "isSupported",
              "type": "bool"
            },
            {
              "internalType": "uint256",
              "name": "value",
              "type": "uint256"
            }
          ],
          "internalType": "struct PlayshubCheckIn.CheckInToken",
          "name": "",
          "type": "tuple"
        }
      ],
      "stateMutability": "view",
      "type": "function"
    },
    {
      "inputs": [],
      "name": "owner",
      "outputs": [
        {
          "internalType": "address",
          "name": "",
          "type": "address"
        }
      ],
      "stateMutability": "view",
      "type": "function"
    },
    {
      "inputs": [],
      "name": "pause",
      "outputs": [],
      "stateMutability": "nonpayable",
      "type": "function"
    },
    {
      "inputs": [],
      "name": "paused",
      "outputs": [
        {
          "internalType": "bool",
          "name": "",
          "type": "bool"
        }
      ],
      "stateMutability": "view",
      "type": "function"
    },
    {
      "inputs": [
        {
          "internalType": "address",
          "name": "token",
          "type": "address"
        }
      ],
      "name": "removeSupportToken",
      "outputs": [],
      "stateMutability": "nonpayable",
      "type": "function"
    },
    {
      "inputs": [],
      "name": "renounceOwnership",
      "outputs": [],
      "stateMutability": "nonpayable",
      "type": "function"
    },
    {
      "inputs": [
        {
          "internalType": "address",
          "name": "newOwner",
          "type": "address"
        }
      ],
      "name": "transferOwnership",
      "outputs": [],
      "stateMutability": "nonpayable",
      "type": "function"
    },
    {
      "inputs": [],
      "name": "unpause",
      "outputs": [],
      "stateMutability": "nonpayable",
      "type": "function"
    },
    {
      "inputs": [
        {
          "internalType": "address",
          "name": "token",
          "type": "address"
        },
        {
          "internalType": "address",
          "name": "to",
          "type": "address"
        },
        {
          "internalType": "uint256",
          "name": "amount",
          "type": "uint256"
        }
      ],
      "name": "withdraw",
      "outputs": [],
      "stateMutability": "nonpayable",
      "type": "function"
    },
    {
      "inputs": [
        {
          "internalType": "address",
          "name": "to",
          "type": "address"
        },
        {
          "internalType": "uint256",
          "name": "amount",
          "type": "uint256"
        }
      ],
      "name": "withdraw",
      "outputs": [],
      "stateMutability": "nonpayable",
      "type": "function"
    }
  ],
  "bytecode": "0x608060405234801561001057600080fd5b5060405161223a38038061223a8339818101604052810190610032919061065c565b82600073ffffffffffffffffffffffffffffffffffffffff168173ffffffffffffffffffffffffffffffffffffffff16036100a55760006040517f1e4fbdf700000000000000000000000000000000000000000000000000000000815260040161009c91906106f6565b60405180910390fd5b6100b48161017760201b60201c565b5060008060146101000a81548160ff021916908315150217905550600180819055508051825114610111576040517f568efce200000000000000000000000000000000000000000000000000000000815260040160405180910390fd5b60005b825181101561016e5761016183828151811061013357610132610711565b5b602002602001015183838151811061014e5761014d610711565b5b602002602001015161023b60201b60201c565b8080600101915050610114565b5050505061076a565b60008060009054906101000a900473ffffffffffffffffffffffffffffffffffffffff169050816000806101000a81548173ffffffffffffffffffffffffffffffffffffffff021916908373ffffffffffffffffffffffffffffffffffffffff1602179055508173ffffffffffffffffffffffffffffffffffffffff168173ffffffffffffffffffffffffffffffffffffffff167f8be0079c531659141344cd1fd0a4f28419497f9722a3daafe3b4186f6b6457e060405160405180910390a35050565b600360008373ffffffffffffffffffffffffffffffffffffffff1673ffffffffffffffffffffffffffffffffffffffff16815260200190815260200160002060000160009054906101000a900460ff16156102c2576040517f735b60ef00000000000000000000000000000000000000000000000000000000815260040160405180910390fd5b604051806040016040528060011515815260200182815250600360008473ffffffffffffffffffffffffffffffffffffffff1673ffffffffffffffffffffffffffffffffffffffff16815260200190815260200160002060008201518160000160006101000a81548160ff021916908315150217905550602082015181600101559050508173ffffffffffffffffffffffffffffffffffffffff167f623a0b9cee02194a14f29bb84aed338d99a5dd3e3f82b4e5b33f3b7d23ddf39d8260405161038c919061074f565b60405180910390a25050565b6000604051905090565b600080fd5b600080fd5b600073ffffffffffffffffffffffffffffffffffffffff82169050919050565b60006103d7826103ac565b9050919050565b6103e7816103cc565b81146103f257600080fd5b50565b600081519050610404816103de565b92915050565b600080fd5b6000601f19601f8301169050919050565b7f4e487b7100000000000000000000000000000000000000000000000000000000600052604160045260246000fd5b6104588261040f565b810181811067ffffffffffffffff8211171561047757610476610420565b5b80604052505050565b600061048a610398565b9050610496828261044f565b919050565b600067ffffffffffffffff8211156104b6576104b5610420565b5b602082029050602081019050919050565b600080fd5b60006104df6104da8461049b565b610480565b90508083825260208201905060208402830185811115610502576105016104c7565b5b835b8181101561052b578061051788826103f5565b845260208401935050602081019050610504565b5050509392505050565b600082601f83011261054a5761054961040a565b5b815161055a8482602086016104cc565b91505092915050565b600067ffffffffffffffff82111561057e5761057d610420565b5b602082029050602081019050919050565b6000819050919050565b6105a28161058f565b81146105ad57600080fd5b50565b6000815190506105bf81610599565b92915050565b60006105d86105d384610563565b610480565b905080838252602082019050602084028301858111156105fb576105fa6104c7565b5b835b81811015610624578061061088826105b0565b8452602084019350506020810190506105fd565b5050509392505050565b600082601f8301126106435761064261040a565b5b81516106538482602086016105c5565b91505092915050565b600080600060608486031215610675576106746103a2565b5b6000610683868287016103f5565b935050602084015167ffffffffffffffff8111156106a4576106a36103a7565b5b6106b086828701610535565b925050604084015167ffffffffffffffff8111156106d1576106d06103a7565b5b6106dd8682870161062e565b9150509250925092565b6106f0816103cc565b82525050565b600060208201905061070b60008301846106e7565b92915050565b7f4e487b7100000000000000000000000000000000000000000000000000000000600052603260045260246000fd5b6107498161058f565b82525050565b60006020820190506107646000830184610740565b92915050565b611ac1806107796000396000f3fe6080604052600436106100e85760003560e01c80638da5cb5b1161008a578063e2769cfa11610059578063e2769cfa146102a8578063f21bb4c5146102d1578063f2fde38b146102ed578063f3fef3a314610316576100e8565b80638da5cb5b146101ee5780639152e2a814610219578063cc92f45314610242578063d9caed121461027f576100e8565b806354a712ec116100c657806354a712ec146101585780635c975abb14610195578063715018a6146101c05780638456cb59146101d7576100e8565b806331f7d964146100ed5780633f4ba83a146101185780634d8e3d3b1461012f575b600080fd5b3480156100f957600080fd5b5061010261033f565b60405161010f91906113b9565b60405180910390f35b34801561012457600080fd5b5061012d610344565b005b34801561013b57600080fd5b506101566004803603810190610151919061144a565b610356565b005b34801561016457600080fd5b5061017f600480360381019061017a91906115d0565b61036c565b60405161018c9190611657565b60405180910390f35b3480156101a157600080fd5b506101aa6103b8565b6040516101b7919061168d565b60405180910390f35b3480156101cc57600080fd5b506101d56103ce565b005b3480156101e357600080fd5b506101ec6103e2565b005b3480156101fa57600080fd5b506102036103f4565b60405161021091906113b9565b60405180910390f35b34801561022557600080fd5b50610240600480360381019061023b91906116a8565b61041d565b005b34801561024e57600080fd5b5061026960048036038101906102649190611704565b610618565b604051610276919061176f565b60405180910390f35b34801561028b57600080fd5b506102a660048036038101906102a1919061178a565b610696565b005b3480156102b457600080fd5b506102cf60048036038101906102ca9190611704565b6107f6565b005b6102eb60048036038101906102e691906115d0565b61080a565b005b3480156102f957600080fd5b50610314600480360381019061030f9190611704565b6109f5565b005b34801561032257600080fd5b5061033d6004803603810190610338919061144a565b610a7b565b005b600081565b61034c610b41565b610354610bc8565b565b61035e610b41565b6103688282610c2a565b5050565b610374611342565b600282604051610384919061184e565b9081526020016040518091039020604051806040016040529081600082015481526020016001820154815250509050919050565b60008060149054906101000a900460ff16905090565b6103d6610b41565b6103e06000610d87565b565b6103ea610b41565b6103f2610e4b565b565b60008060009054906101000a900473ffffffffffffffffffffffffffffffffffffffff16905090565b610425610eae565b600360008373ffffffffffffffffffffffffffffffffffffffff1673ffffffffffffffffffffffffffffffffffffffff16815260200190815260200160002060000160009054906101000a900460ff166104ab576040517f6174259400000000000000000000000000000000000000000000000000000000815260040160405180910390fd5b6105216104b6610eef565b30600360008673ffffffffffffffffffffffffffffffffffffffff1673ffffffffffffffffffffffffffffffffffffffff168152602001908152602001600020600101548573ffffffffffffffffffffffffffffffffffffffff16610ef7909392919063ffffffff16565b60004290506000600160028460405161053a919061184e565b9081526020016040518091039020600101546105569190611894565b905060405180604001604052808381526020018281525060028460405161057d919061184e565b908152602001604051809103902060008201518160000155602082015181600101559050508373ffffffffffffffffffffffffffffffffffffffff166105c1610eef565b73ffffffffffffffffffffffffffffffffffffffff167f9135ee9940af1b44e6c5097b97899ba11d0fe10ecc5493bfa53f32517960f6ed84848760405161060a93929190611921565b60405180910390a350505050565b61062061135c565b600360008373ffffffffffffffffffffffffffffffffffffffff1673ffffffffffffffffffffffffffffffffffffffff1681526020019081526020016000206040518060400160405290816000820160009054906101000a900460ff161515151581526020016001820154815250509050919050565b61069e610b41565b6106a6610f79565b8273ffffffffffffffffffffffffffffffffffffffff166370a08231306040518263ffffffff1660e01b81526004016106df91906113b9565b602060405180830381865afa1580156106fc573d6000803e3d6000fd5b505050506040513d601f19601f820116820180604052508101906107209190611974565b811115610759576040517ff4d678b800000000000000000000000000000000000000000000000000000000815260040160405180910390fd5b61078482828573ffffffffffffffffffffffffffffffffffffffff16610fbf9092919063ffffffff16565b8173ffffffffffffffffffffffffffffffffffffffff168373ffffffffffffffffffffffffffffffffffffffff167fd1c19fbcd4551a5edfb66d43d2e337c04837afda3482b42bdf569a8fccdae5fb836040516107e191906119a1565b60405180910390a36107f161103e565b505050565b6107fe610b41565b61080781611047565b50565b610812610eae565b6000600360008073ffffffffffffffffffffffffffffffffffffffff1673ffffffffffffffffffffffffffffffffffffffff1681526020019081526020016000206040518060400160405290816000820160009054906101000a900460ff16151515158152602001600182015481525050905080600001516108c0576040517f6174259400000000000000000000000000000000000000000000000000000000815260040160405180910390fd5b806020015134146108fd576040517ff4d678b800000000000000000000000000000000000000000000000000000000815260040160405180910390fd5b600042905060006001600285604051610916919061184e565b9081526020016040518091039020600101546109329190611894565b9050604051806040016040528083815260200182815250600285604051610959919061184e565b90815260200160405180910390206000820151816000015560208201518160010155905050600073ffffffffffffffffffffffffffffffffffffffff1661099e610eef565b73ffffffffffffffffffffffffffffffffffffffff167f9135ee9940af1b44e6c5097b97899ba11d0fe10ecc5493bfa53f32517960f6ed8484886040516109e793929190611921565b60405180910390a350505050565b6109fd610b41565b600073ffffffffffffffffffffffffffffffffffffffff168173ffffffffffffffffffffffffffffffffffffffff1603610a6f5760006040517f1e4fbdf7000000000000000000000000000000000000000000000000000000008152600401610a6691906113b9565b60405180910390fd5b610a7881610d87565b50565b610a83610b41565b610a8b610f79565b47811115610ac5576040517ff4d678b800000000000000000000000000000000000000000000000000000000815260040160405180910390fd5b610acf8282611171565b8173ffffffffffffffffffffffffffffffffffffffff16600073ffffffffffffffffffffffffffffffffffffffff167fd1c19fbcd4551a5edfb66d43d2e337c04837afda3482b42bdf569a8fccdae5fb83604051610b2d91906119a1565b60405180910390a3610b3d61103e565b5050565b610b49610eef565b73ffffffffffffffffffffffffffffffffffffffff16610b676103f4565b73ffffffffffffffffffffffffffffffffffffffff1614610bc657610b8a610eef565b6040517f118cdaa7000000000000000000000000000000000000000000000000000000008152600401610bbd91906113b9565b60405180910390fd5b565b610bd0611260565b60008060146101000a81548160ff0219169083151502179055507f5db9ee0a495bf2e6ff9c91a7834c1ba4fdd244a5e8aa4e537bd38aeae4b073aa610c13610eef565b604051610c2091906113b9565b60405180910390a1565b600360008373ffffffffffffffffffffffffffffffffffffffff1673ffffffffffffffffffffffffffffffffffffffff16815260200190815260200160002060000160009054906101000a900460ff1615610cb1576040517f735b60ef00000000000000000000000000000000000000000000000000000000815260040160405180910390fd5b604051806040016040528060011515815260200182815250600360008473ffffffffffffffffffffffffffffffffffffffff1673ffffffffffffffffffffffffffffffffffffffff16815260200190815260200160002060008201518160000160006101000a81548160ff021916908315150217905550602082015181600101559050508173ffffffffffffffffffffffffffffffffffffffff167f623a0b9cee02194a14f29bb84aed338d99a5dd3e3f82b4e5b33f3b7d23ddf39d82604051610d7b91906119a1565b60405180910390a25050565b60008060009054906101000a900473ffffffffffffffffffffffffffffffffffffffff169050816000806101000a81548173ffffffffffffffffffffffffffffffffffffffff021916908373ffffffffffffffffffffffffffffffffffffffff1602179055508173ffffffffffffffffffffffffffffffffffffffff168173ffffffffffffffffffffffffffffffffffffffff167f8be0079c531659141344cd1fd0a4f28419497f9722a3daafe3b4186f6b6457e060405160405180910390a35050565b610e53610eae565b6001600060146101000a81548160ff0219169083151502179055507f62e78cea01bee320cd4e420270b5ea74000d11b0c9f74754ebdbfc544b05a258610e97610eef565b604051610ea491906113b9565b60405180910390a1565b610eb66103b8565b15610eed576040517fd93c066500000000000000000000000000000000000000000000000000000000815260040160405180910390fd5b565b600033905090565b610f73848573ffffffffffffffffffffffffffffffffffffffff166323b872dd868686604051602401610f2c939291906119bc565b604051602081830303815290604052915060e01b6020820180517bffffffffffffffffffffffffffffffffffffffffffffffffffffffff83818316178352505050506112a0565b50505050565b600260015403610fb5576040517f3ee5aeb500000000000000000000000000000000000000000000000000000000815260040160405180910390fd5b6002600181905550565b611039838473ffffffffffffffffffffffffffffffffffffffff1663a9059cbb8585604051602401610ff29291906119f3565b604051602081830303815290604052915060e01b6020820180517bffffffffffffffffffffffffffffffffffffffffffffffffffffffff83818316178352505050506112a0565b505050565b60018081905550565b600360008273ffffffffffffffffffffffffffffffffffffffff1673ffffffffffffffffffffffffffffffffffffffff16815260200190815260200160002060000160009054906101000a900460ff166110cd576040517f6174259400000000000000000000000000000000000000000000000000000000815260040160405180910390fd5b600360008273ffffffffffffffffffffffffffffffffffffffff1673ffffffffffffffffffffffffffffffffffffffff168152602001908152602001600020600080820160006101000a81549060ff0219169055600182016000905550508073ffffffffffffffffffffffffffffffffffffffff167f1cef54ca6e1745ad87fa3077491d9fc42257e9f1a2d7cad58a4e52bd14dfc62660405160405180910390a250565b804710156111b85747816040517fcf4791810000000000000000000000000000000000000000000000000000000081526004016111af929190611a1c565b60405180910390fd5b60008273ffffffffffffffffffffffffffffffffffffffff16826040516111de90611a76565b60006040518083038185875af1925050503d806000811461121b576040519150601f19603f3d011682016040523d82523d6000602084013e611220565b606091505b505090508061125b576040517fd6bda27500000000000000000000000000000000000000000000000000000000815260040160405180910390fd5b505050565b6112686103b8565b61129e576040517f8dfc202b00000000000000000000000000000000000000000000000000000000815260040160405180910390fd5b565b600080602060008451602086016000885af1806112c3576040513d6000823e3d81fd5b3d9250600051915050600082146112de5760018114156112fa565b60008473ffffffffffffffffffffffffffffffffffffffff163b145b1561133c57836040517f5274afe700000000000000000000000000000000000000000000000000000000815260040161133391906113b9565b60405180910390fd5b50505050565b604051806040016040528060008152602001600081525090565b6040518060400160405280600015158152602001600081525090565b600073ffffffffffffffffffffffffffffffffffffffff82169050919050565b60006113a382611378565b9050919050565b6113b381611398565b82525050565b60006020820190506113ce60008301846113aa565b92915050565b6000604051905090565b600080fd5b600080fd5b6113f181611398565b81146113fc57600080fd5b50565b60008135905061140e816113e8565b92915050565b6000819050919050565b61142781611414565b811461143257600080fd5b50565b6000813590506114448161141e565b92915050565b60008060408385031215611461576114606113de565b5b600061146f858286016113ff565b925050602061148085828601611435565b9150509250929050565b600080fd5b600080fd5b6000601f19601f8301169050919050565b7f4e487b7100000000000000000000000000000000000000000000000000000000600052604160045260246000fd5b6114dd82611494565b810181811067ffffffffffffffff821117156114fc576114fb6114a5565b5b80604052505050565b600061150f6113d4565b905061151b82826114d4565b919050565b600067ffffffffffffffff82111561153b5761153a6114a5565b5b61154482611494565b9050602081019050919050565b82818337600083830152505050565b600061157361156e84611520565b611505565b90508281526020810184848401111561158f5761158e61148f565b5b61159a848285611551565b509392505050565b600082601f8301126115b7576115b661148a565b5b81356115c7848260208601611560565b91505092915050565b6000602082840312156115e6576115e56113de565b5b600082013567ffffffffffffffff811115611604576116036113e3565b5b611610848285016115a2565b91505092915050565b61162281611414565b82525050565b60408201600082015161163e6000850182611619565b5060208201516116516020850182611619565b50505050565b600060408201905061166c6000830184611628565b92915050565b60008115159050919050565b61168781611672565b82525050565b60006020820190506116a2600083018461167e565b92915050565b600080604083850312156116bf576116be6113de565b5b60006116cd858286016113ff565b925050602083013567ffffffffffffffff8111156116ee576116ed6113e3565b5b6116fa858286016115a2565b9150509250929050565b60006020828403121561171a576117196113de565b5b6000611728848285016113ff565b91505092915050565b61173a81611672565b82525050565b6040820160008201516117566000850182611731565b5060208201516117696020850182611619565b50505050565b60006040820190506117846000830184611740565b92915050565b6000806000606084860312156117a3576117a26113de565b5b60006117b1868287016113ff565b93505060206117c2868287016113ff565b92505060406117d386828701611435565b9150509250925092565b600081519050919050565b600081905092915050565b60005b838110156118115780820151818401526020810190506117f6565b60008484015250505050565b6000611828826117dd565b61183281856117e8565b93506118428185602086016117f3565b80840191505092915050565b600061185a828461181d565b915081905092915050565b7f4e487b7100000000000000000000000000000000000000000000000000000000600052601160045260246000fd5b600061189f82611414565b91506118aa83611414565b92508282019050808211156118c2576118c1611865565b5b92915050565b6118d181611414565b82525050565b600082825260208201905092915050565b60006118f3826117dd565b6118fd81856118d7565b935061190d8185602086016117f3565b61191681611494565b840191505092915050565b600060608201905061193660008301866118c8565b61194360208301856118c8565b818103604083015261195581846118e8565b9050949350505050565b60008151905061196e8161141e565b92915050565b60006020828403121561198a576119896113de565b5b60006119988482850161195f565b91505092915050565b60006020820190506119b660008301846118c8565b92915050565b60006060820190506119d160008301866113aa565b6119de60208301856113aa565b6119eb60408301846118c8565b949350505050565b6000604082019050611a0860008301856113aa565b611a1560208301846118c8565b9392505050565b6000604082019050611a3160008301856118c8565b611a3e60208301846118c8565b9392505050565b600081905092915050565b50565b6000611a60600083611a45565b9150611a6b82611a50565b600082019050919050565b6000611a8182611a53565b915081905091905056fea2646970667358221220bb9ad4c2de48a08a81d575091c430e6775e440e95edb801df8924e3fe3337c0564736f6c634300081b0033",
  "linkReferences": {},
  "deployedLinkReferences": {}
}